:040000000EEF0BF004
:1011B000C58AC58812009EA6FED79E961200C586D7
:1011C000DBEC08F01200C582DBEC08F01200C580F1
:1011D000DBEC08F01200C584DBEC08F01200DFEC59
:1011E00008F0D8EC08F0C9501200016E01C0C9FF28
:1011F000DBEC08F01200016E9EA8FED701C0ADFF27
:1012000012000F0EC16E1E0E936EF19E8150E0090A
:10121000816E120094869488280EC66E310EC86EB8
:10122000C79CC78E9E96A19612000A6E000E016E94
:1012300009505FEC09F0010E016E0A505FEC09F0F5
:101240001200CF2F922FBA2F3A2FD92F00003A0039
:10125000003A0000004E523132333435106EE7EC64
:1012600008F0D00EF5EC08F01050F5EC08F00F5037
:10127000F5EC08F0EBEC08F01200C08EC08AC098C4
:10128000C096C090C082C094C292C19AC198000E0C
:10129000C46E000EC36EC280120009C001F00AC005
:1012A00002F0036A8E0E046E000E056E9AEC0CF0CE
:1012B00001C009F002C00AF003C00BF01200026E78
:1012C00001B002D0829201D0828202C083FF828468
:1012D0008294958E828082928284829483BEFCD78F
:1012E0008290959E1200066E080E076E000E086E24
:1012F000D89006340834086ED89006360550085C3D
:10130000D8A002D00550085E072EF2D70850120070
:10131000026EE7EC08F0A00EF5EC08F00250F5ECD8
:1013200008F0E3EC08F0A10EF5EC08F0EFEC08F0A3
:10133000036EEBEC08F003501200026EE7EC08F0CD
:10134000D00EF5EC08F00250F5EC08F0E3EC08F0F4
:10135000D10EF5EC08F0EFEC08F0036EEBEC08F0C2
:1013600003501200056EE7EC08F0A00EF5EC08F053
:101370000550F5EC08F00250F5EC08F0EBEC08F045
:101380000B0E046EB80E036E0306D8A004060328E5
:10139000FBE10428D8B41200F7D7000E956E9450E4
:1013A000F80B946E8290000E016E020E5FEC09F055
:1013B000000E016E380E5FEC09F0000E016E0C0E8F
:1013C0005FEC09F0000E016E010E5FEC09F01200F7
:1013D000026E000E046E0150D8B415D0010E036EDB
:1013E00003D0D8900136032A01AEFBD7D89004363B
:1013F0000150025CD8A003D00150025E0480D89056
:101400000132032EF3D704501200076E07C003F019
:10141000D8900336D8900336C250C30B0310C26E67
:10142000C282C2B2FED7C350C4CF03F0046A03C065
:1014300004F0036A0310056E0450066E05C001F047
:1014400006C002F01200000E076E000E066E0ED0EF
:10145000C30E056E500E046E0406D8A005060428BF
:10146000FBE10528D8A4F8D7064A072A0150065CF4
:101470000750800A036E0250800A0358D8B0120049
:10148000E7D7016E0104D8A413D0CEEC0BF04F6E59
:101490004F28D8B407D05D50D8B404D0000E5D6E8C
:1014A0004F5012004F28D8A409D0010E5D6E06D00F
:1014B0000150D8A403D0CEEC0BF01200FF0E1200A6
:1014C000948E949CAC9EAC9CAC8AAC98AC96AC844C
:1014D000AC92AC90AB8EAB9CAB9AAB88AB96AB941A
:1014E000AB92AB90B89EB88CB898B896B892B890BA
:1014F000810EAF6E9D889E989D8A9E9A1200035021
:101500000410D8B418D0010E056E04D0D89003365C
:101510000436052A04AEFAD70350015C0450025881
:10152000D8A004D00350015E0450025AD89004326F
:101530000332052EF1D701C001F002C002F0120003
:10154000CDEC09F001EC09F03DEC09F00AEC09F0F2
:10155000C1EC0AF060EC0AF0000E026E640EB2EC10
:1015600009F0000E026E650EB2EC09F0000E026E7C
:10157000660EB2EC09F0000E026E670EB2EC09F0D6
:101580001200000E9DEC09F0116E115080090F6ED3
:10159000000E2EEC09F0020E9DEC09F0116E1150B8
:1015A000BF0B0F6E020E2EEC09F0930E0F6E070E9E
:1015B0002EEC09F0000E9DEC09F0116E11507F0B1E
:1015C0000F6E000E2EEC09F01200000E066E000EDB
:1015D000056E03500410D8B41CD0010E076E04D061
:1015E000D89003360436072A04AEFAD7D8900536C9
:1015F00006360350015C04500258D8A005D00350B1
:10160000015E0450025A0580D89004320332072E3E
:10161000EDD705C001F006C002F01200420EF66ED2
:10162000120EF76E000EF86E00EE7CF010EE1AF05F
:101630000900F5CFEEFFE550E150FAE1000EF66E3D
:10164000300EF76E000EF86E0900F5CF5DF000EE7B
:1016500060F01C0EEE6AE806FDE100EE45F0180EA3
:10166000EE6AE806FDE1000EF86E0001A0EF0FF053
:10167000020E9DEC09F0486E010E9DEC09F0496EDA
:10168000000E9DEC09F04A6E48380F0B030B300F2B
:10169000516E48500F0B300F526E3A0E536E493850
:1016A0000F0B0F0B300F546E49500F0B300F556E50
:1016B0003A0E566E4A380F0B0F0B300F576E4A50CA
:1016C0000F0B300F586E000E596E1200000E016E97
:1016D00005505FEC09F016D0010E016E03C0F6FF55
:1016E00004C0F7FFF86A050EF76403D00800F55050
:1016F00005D0F6CFE9FFF7CFEAFFEF505FEC09F036
:10170000034A042A03C0F6FF04C0F7FFF86A050E77
:10171000F76403D00800F55005D0F6CFE9FFF7CF06
:10172000EAFFEF500009D8B41200D6D7000E0E6EB3
:101730000AAE06D0096C0A1ED8B00A2A010E0E6E37
:101740000CAE04D00B6C0C1ED8B00C2A0B500C1035
:10175000D8B418D0010E0D6E04D0D8900B360C36CC
:101760000D2A0CAEFAD70B50095C0C500A58D8A0C1
:1017700004D00B50095E0C500A5AD8900C320B3230
:101780000D2EF1D70E50D8B404D0096C0A1ED8B073
:101790000A2A09C009F00AC00AF01200819A818C55
:1017A000818E81B202D0010E120081B402D0040EEB
:1017B000120081B602D0070E120081B802D00A0EC4
:1017C0001200818A819C818E81B202D0020E1200A9
:1017D00081B402D0050E120081B602D0080E1200AC
:1017E00081B802D00B0E1200818A818C819E819E6D
:1017F00081B202D0030E120081B402D0060E120094
:1018000081B602D0090E120081B802D00C0E12006F
:10181000FF0E1200000E066E04AE06D0036C041E0E
:10182000D8B0042A010E066E02AE06D0016C021E6C
:10183000D8B0022A010E061A000E086E000E076EBE
:1018400003500410D8B41CD0010E056E04D0D890FB
:1018500003360436052A04AEFAD7D8900736083680
:101860000350015C04500258D8A005D00350015E1B
:101870000450025A0780D89004320332052EEDD767
:101880000650D8B404D0076C081ED8B0082A07C088
:1018900001F008C002F01200000E1E6EC60E1F6E90
:1018A000420E206EC00E0F6E7F0E106E440E116E33
:1018B000040E05EC0AF001C009F002C00AF04DEC7C
:1018C00009F009C00CF00AC00DF00BC00EF0B8EC26
:1018D0000DF00CC01BF00DC01CF00EC01DF0A0ECF4
:1018E0000EF01BC02AF01CC02BF01DC02CF04FECDA
:1018F0000DF02AC039F02BC03AF039C001F03AC0DF
:1019000002F0000E046E0A0E036EE5EC0AF00150C0
:10191000300F5A6E39C001F03AC002F0000E046E6A
:101920000A0E036E7FEC0AF00150300F5B6E000E62
:101930005C6E12000450D8B405D0015002100310A0
:10194000D8A40CD0000E016E000E026E000E036EC5
:101950001200042AD890033202320132000E011420
:10196000066E000E0214076EFE0E0314086E06507B
:1019700007100810D8B40CD0ECD7042A010E0126A9
:10198000000E0222000E0322D890033202320132EE
:10199000000E0114066E000E0214076EFF0E0314F3
:1019A000086E065007100810D8B406D0E6D7040613
:1019B000D89001360236033602BE03D0020E046010
:1019C000F6D704A0029ED8900432045003120550AA
:1019D000D8A4038E01C001F002C002F003C003F0DE
:1019E000120004500A0DF35088EC09F0FBEC08F0EB
:1019F00004500A0DF32888EC09F0FBEC08F03A0ECD
:101A0000FBEC08F004500A0DF350020F88EC09F0CB
:101A1000FBEC08F004500A0DF350030F88EC09F0BA
:101A2000FBEC08F03A0EFBEC08F004500A0DF35002
:101A3000040F88EC09F0FBEC08F004500A0DF35099
:101A4000050F88EC09F0FBEC08F0200EFBEC08F029
:101A500004500A0DF350060F88EC09F0FBEC08F077
:101A600004500A0DF350070F88EC09F0FBEC08F066
:101A7000200EFBEC08F004500A0DF350080F88EC20
:101A800009F0FBEC08F004500A0DF350090F88EC44
:101A900009F0FBEC08F00A0EFBEC08F012002CC079
:101AA0002EF02F6A306A2B342E3601E32F802E5011
:101AB000386E3850D8A409D0000E2A6E000E2B6E56
:101AC000000E2C6E000E2D6E1200170E2E6E2AC008
:101AD0002FF02BC030F02CC031F02E28326E04D005
:101AE000D890313230322F32322EFAD72F50336E17
:101AF0002B8EFF0E2A16FF0E2B16000E2C162A50C8
:101B0000346E2B50356E2C50366E376A8E0E385E22
:101B100038AE0DD03850800A8F0FD8A0CDD7D890CE
:101B20003732363235323432383EF9D70DD0170ECF
:101B3000386407D0C1D7D890343635363636373684
:101B400038063850D8A4F7D73350D8B408D0371E49
:101B5000361E351E346C000E35223622372234C034
:101B60002AF035C02BF036C02CF037C02DF0120013
:101B70000EC012F0136A146A0D34123601E313809A
:101B80001250196E1950D8A407D0000E0C6E000E1A
:101B90000D6E000E0E6E120011C012F0136A146A60
:101BA0001034123601E3138012501A6E1A50D8A462
:101BB00007D0000E0C6E000E0D6E000E0E6E1200A1
:101BC000000E166E000E176E000E186E1A50890F5A
:101BD000195E0EC01AF011501A1A800E1A160D8EC8
:101BE000FF0E0C16FF0E0D16000E0E16108EFF0EB9
:101BF0000F16FF0E1016000E1116180E156ED89047
:101C00001636173618360F500C5C10500D58115000
:101C10000E58D8A007D00F500C5E10500D5A11501E
:101C20000E5A1680D8900C360D360E36152EE7D784
:101C300016C001F017C002F018C003F019C004F07C
:101C40001AC005F09AEC0CF001C00CF002C00DF0C7
:101C500003C00EF01200000E216E000E206E000E6A
:101C60001F6E000E1E6E20EE0EF00F0EDE6AE806EE
:101C7000FDE25CD0F10E036E2F0E046E800E056E39
:101C800066EC0BF0C00E096E2050300F15EC09F019
:101C9000C10E096E2E0E15EC09F020C00BF0C00E1F
:101CA0001AEC0FF03AD021BE41D0215003E12004BC
:101CB000D8A03CD02006D8A0210638D0000E026E55
:101CC000050E016E23EC0AF0000E41EC0AF0050A45
:101CD000D8A405D0000E1F6E010E1E6E27D04CBE7C
:101CE00011D04C5004E10A0E4B5CD8A00BD021BEA1
:101CF00006D021501BE1090E205CD8B017D0204A35
:101D0000212A14D04D50205C2150800A0D6E4E5077
:101D1000800A0D58D8A0F3D709D0010E41EC0AF083
:101D2000040AD8B4C0D7010AD8B4C8D71E501F10AF
:101D3000D8B4A0D7000E016E010E5FEC09F01200BE
:101D40001DC021F0226A236A1C34213601E322805F
:101D50002150246E2450D8A407D0000E1B6E000E14
:101D60001C6E000E1D6E120020C021F0226A236A34
:101D70001F34213601E322802150296E2950D8A436
:101D800007D0000E1B6E000E1C6E000E1D6E1200A2
:101D900029507B0F24261DC029F02050291A800EBF
:101DA00029161C8E1F8EFF0E1E16FF0E1F16000E0C
:101DB0002016000E256E000E266E000E276E070EF2
:101DC000286E1BA006D01E5025261F50262220500C
:101DD0002722D8901D321C321B32D8901E361F3657
:101DE0002036282EEED7090E286E1BA006D01E50D6
:101DF00025261F50262220502722D8901D321C3223
:101E00001B32D890273226322532282EEED725C015
:101E100001F026C002F027C003F024C004F029C05E
:101E200005F09AEC0CF001C01BF002C01CF003C0DE
:101E30001DF012000C6E0C50020F096E0B500A0DB3
:101E4000F35088EC09F015EC09F00C50030F096E03
:101E50000B500A0DF32888EC09F015EC09F00C5032
:101E6000040F096E3A0E15EC09F00C50050F096EBF
:101E70000B500A0DF350020F88EC09F015EC09F035
:101E80000C50060F096E0B500A0DF350030F88EC2F
:101E900009F015EC09F00C50070F096E3A0E15EC1D
:101EA00009F00C50080F096E0B500A0DF350040F87
:101EB00088EC09F015EC09F00C50090F096E0B5075
:101EC0000A0DF350050F88EC09F015EC09F00C50E1
:101ED0000A0F096E200E15EC09F00C500B0F096E5D
:101EE0000B500A0DF350060F88EC09F015EC09F0C1
:101EF0000C500C0F096E0B500A0DF350070F88ECB5
:101F000009F015EC09F00C500D0F096E200E15ECC0
:101F100009F00C500E0F096E0B500A0DF350080F0C
:101F200088EC09F015EC09F00C500F0F096E0B50FE
:101F30000A0DF350090F88EC09F015EC09F01200B6
:101F400020EE8FF010EE3CF0060EDBCFE3FFE8064C
:101F5000FCE2000E446E000E436EA0EC0AF0FA0E96
:101F6000036E2F0E046EC90E056E66EC0BF038EC96
:101F70000BF04CEC0CF04F0E50EC10F0D70E036E43
:101F80002E0E046E800E056E66EC0BF038EC0BF036
:101F90004CEC0CF0510E036E046AC00E056E66EC3C
:101FA0000BF05A0E036E046ACE0E056E66EC0BF053
:101FB00067D043503C0FD96EDA6ADF5050EC10F016
:101FC000C90E096E470E15EC09F0CA0E096E435092
:101FD0003C0FD96EDA6ADF5015EC09F0434A442A07
:101FE00044BECCD7445004E1070E435CD8A0C6D70A
:101FF000000E446E060E1DD043503C0FD96EDA6AB7
:10200000DF5050EC10F0C90E096E470E15EC09F0C8
:10201000CA0E096E43503C0FD96EDA6ADF5015ECD8
:1020200009F04306D8A0440644AEA8D7000E446E7B
:10203000000E436EA3D7430E50EC10F0F70E036E64
:102040002F0E046EC90E056E66EC0BF097D7000ECE
:10205000026E020E016E23EC0AF0500E50EC10F0EE
:1020600054EC12F00009D8A403D0BEEC13F086D7CC
:1020700054EC12F0E806D8A481D754EC12F07ED7C5
:10208000010E41EC0AF0010AD8B4D5D7030AD8B43E
:1020900090D7010AD8B4B0D7070AD8B4D8D76ED72A
:1020A0000F6E51C002F04D500A0DF350B2EC09F022
:1020B00052C002F04D500A0DF328B2EC09F054C0A2
:1020C00002F04D500A0DF350020FB2EC09F055C06A
:1020D00002F04D500A0DF350030FB2EC09F057C057
:1020E00002F04D500A0DF350040FB2EC09F058C045
:1020F00002F04D500A0DF350050FB2EC09F0430EFB
:102100000F18D8A411D0200E026E4D500A0DF350B6
:10211000060FB2EC09F0430E026E4D500A0DF3505B
:10212000070FB2EC09F08ED04F0E0F18D8A411D0C3
:102130004F0E026E4D500A0DF350060FB2EC09F02F
:102140004E0E026E4D500A0DF350070FB2EC09F01F
:1021500079D0500E0F18D8A411D0500E026E4D50E9
:102160000A0DF350060FB2EC09F0410E026E4D500D
:102170000A0DF350070FB2EC09F064D0560E0F1899
:10218000D8A411D0560E026E4D500A0DF350060F12
:10219000B2EC09F04C0E026E4D500A0DF350070FD1
:1021A000B2EC09F04FD0440E0F18D8A411D0440E51
:1021B000026E4D500A0DF350060FB2EC09F04C0EB2
:1021C000026E4D500A0DF350070FB2EC09F03AD0F1
:1021D000580E0F18D8A411D0430E026E4D500A0DA0
:1021E000F350060FB2EC09F04C0E026E4D500A0D82
:1021F000F350070FB2EC09F025D0570E0F18D8A4F2
:1022000011D0430E026E4D500A0DF350060FB2EC82
:1022100009F0500E026E4D500A0DF350070FB2EC4C
:1022200009F010D0470E026E4D500A0DF350060F04
:10223000B2EC09F00FC002F04D500A0DF350070F39
:10224000B2EC09F05AC002F04D500A0DF350080FDD
:10225000B2EC09F05BC002F04D500A0DF350090FCB
:10226000B2EC09F0010E4D24096E000E4E200A6EEC
:10227000000E0C6E0A0E0B6E96EC0BF009C04DF0C2
:102280000AC04EF04B4A4C2A1200000E176E08D1BD
:10229000000E016E010E5FEC09F0000E1E6E000EC6
:1022A000136E000E146E000E156E000E166E000EEC
:1022B0000D6E000E0E6E000E0F6E000E106E2CD006
:1022C000B10E036E2E0E046E800E056E66EC0BF0E2
:1022D0001AD01E50C00F096E2A0E15EC09F01E50C0
:1022E000130FD96EDA6A010EDF6E1E2A15D01E504A
:1022F000C00F096E2A0E15EC09F01E50130FD96E8F
:10230000DA6A000EF1D7010E41EC0AF0040AD8B4E3
:10231000EED7010AD8B4DDD7030E1E64D1D7000E64
:10232000016E010E5FEC09F0000E1E6E2CD0C40E83
:10233000036E2E0E046E820E056E66EC0BF01AD044
:102340001E50C00F096E2A0E15EC09F01E500D0F1D
:10235000D96EDA6A010EDF6E1E2A15D01E50C00F2C
:10236000096E2A0E15EC09F01E500D0FD96EDA6AAF
:10237000000EF1D7010E41EC0AF0040AD8B4EED7F2
:10238000010AD8B4DDD7030E1E64D1D7000E1E6E2D
:10239000000E1B6E000E1A6E1A50130FD96EDA6AF9
:1023A0001A500D0FE16EE26ADE50E618D8B41E2A0C
:1023B0001A4A1B2A1BBEF0D71B5004E1040E1A5CFC
:1023C000D8A0EAD7000E016E010E5FEC09F0040EF2
:1023D0001E18D8A43BD0000E1D6E000E1C6E1C50A3
:1023E000130FD96EDA6ADF50026E1C50640FB2EC24
:1023F00009F01C4A1D2A1DBEF2D71D5004E1040E2F
:102400001C5CD8A0ECD7000E016E010E5FEC09F049
:102410001B0E036E2F0E046E800E056E66EC0BF025
:10242000A00E036E2F0E046EC10E056E66EC0BF04F
:10243000000E026E0A0E016E23EC0AF0000E016E11
:10244000010E5FEC09F0010E176E10D09B0E036EAB
:102450002E0E046E800E056E66EC0BF0670E036E9A
:102460002F0E046EC10E056E66EC0BF0000E196E99
:10247000000E186EC30E126E500E116E1106D8A00B
:1024800012061128FBE11228D8A4F8D7184A192AF5
:1024900019BEF0D7195004E10A0E185CD8A0EAD78B
:1024A0001750D8A41200F4D6000E016E010E5FEC96
:1024B00009F0580E036E2F0E046E810E056E66EC49
:1024C0000BF0000E0D6E000E0E6E000E0F6E000E65
:1024D000106E000E1F6E030E1E6E000E266E000E96
:1024E000256E000E126E000E116E44D1010E41ECED
:1024F0000AF0196E130E146E880E136E1306D8A010
:1025000014061328FBE11428D8A4F8D726BE06D059
:10251000265049E1040E255CD8B045D011500B6E11
:1025200012500C6E114A122A0CBE06D0980E0B5C8B
:102530003A0E0C58D8B007D02550C00F096E5F0E68
:1025400015EC09F028D02550C00F096E200E15ECAF
:1025500009F021D0FD0E036E2F0E046E2550C00F22
:10256000056E66EC0BF025500D0FD96EDA6A010E80
:10257000DF6E254A262A85D0FD0E036E2F0E046ECF
:102580002550C00F056E66EC0BF025500D0FD96E6F
:10259000DA6A000EEDD71950040AD8B4EDD7010A53
:1025A000D8B4D8D76ED0000E186E000E176E000E7D
:1025B000236E000E226E22500D0FD96EDA6A225061
:1025C000640F88EC09F00C6EDE500C18D8A402D011
:1025D000174A182A224A232A23BEEDD7235004E1A2
:1025E000040E225CD8A0E7D7040E17181810D8A440
:1025F00007D0000E016E010E5FEC09F0000E120014
:10260000000E266E000E256E000E016E010E5FECB0
:1026100009F0E20E036E2F0E046EC40E056E66EC1A
:102620000BF0000E216E000E206EC30E166E500EC3
:10263000156E1506D8A016061528FBE11628D8A495
:10264000F8D7204A212A21BEF0D7215004E10A0EF2
:10265000205CD8A0EAD7000E016E010E5FEC09F0F5
:10266000490E036E2F0E046E800E056E66EC0BF0A5
:102670008F0E096E1E06D8A01F061E50300F15ECD7
:1026800009F01E501F10D8A475D0010E506E0A0E0E
:10269000036E2F0E046E800E056E66EC0BF0780E46
:1026A000246E47D0CA0E096E0A0E056E245073ECD4
:1026B00009F0300F15EC09F0C90E096E0A0E056E0F
:1026C0000A0E016E2450E8EC09F073EC09F0300FAB
:1026D00015EC09F0C80E096E0A0E056E640E016E47
:1026E0002450E8EC09F073EC09F0300F15EC09F018
:1026F000EA0E036E2F0E046EC00E056E66EC0BF034
:10270000000E1A6E000E1B6E000E1C6E000E1D6E6B
:10271000010E1A26000E1B221C221D221D5008E14C
:10272000400E1A5C0D0E1B58030E1C58D8A0F0D793
:1027300024062450D8A4B6D75004D8A41BD0000E29
:10274000506E000E1F6E030E1E6E000E016E010E07
:102750005FEC09F0580E036E2F0E046E810E056EAD
:1027600066EC0BF0F90E036E2E0E046EC00E056EB5
:1027700066EC0BF05004D8B41200B8D620EE7CF012
:1027800010EE2AF0090EDBCFE3FFE806FCE2000EB4
:102790003B6E000E3A6E000E396E000E386E000E63
:1027A000356E000E31D138503910D8A406D0800EC5
:1027B000096E2A0E15EC09F005D0C00E096E2A0E1E
:1027C00015EC09F03A50020DF3502A0FD96EDA6A6F
:1027D000DECF03F0DDCF04F0820E056E66EC0BF069
:1027E0003A50020DF3CF28F0020E282628502A0F67
:1027F000D96EDA6ADECF03F0DDCF04F0C20E056ECB
:1028000066EC0BF021D1000E026E050E016E23EC7A
:102810000AF0000E41EC0AF0040AD8B4B3D0CDD0CF
:10282000560E50EC10F0000E016E010E5FEC09F038
:102830004CBE08D04C5003E14B04D8A003D02BEC85
:102840000EF008D0E80E036E2E0E046E800E056E9C
:1028500066EC0BF0000E026E0A0E016E23EC0AF01D
:10286000000E016E010E5FEC09F0F7D0440E50EC43
:1028700010F0000E016E010E5FEC09F0AE0E036E5B
:102880002F0E046E820E056E66EC0BF0C50E036E05
:102890002F0E046EC30E056E66EC0BF0000E026E7A
:1028A000050E016E23EC0AF0000E376E000E366E38
:1028B0000BD00D0EFBEC08F036C004F037C005F06D
:1028C000F1EC0CF0364A372A4B50365C3750800A10
:1028D000286E4C50800A2858D8B008D037BEE9D7A7
:1028E000375004E10A0E365CD8A0E3D7000E016E23
:1028F000010E5FEC09F0B1D0580E50EC10F0000E54
:102900004E6E000E4D6E000E4C6E000E4B6E000EA5
:10291000016E010E5FEC09F0840E036E2F0E046E43
:10292000800E056E66EC0BF0000E026E0A0E016E54
:1029300023EC0AF0000E016E010E5FEC09F08DD061
:10294000570E50EC10F045EC11F087D0000E016EE0
:10295000010E5FEC09F032EC15F0000E016E010E75
:102960005FEC09F0C80E096E200E15EC09F0C90ED7
:10297000096E200E15EC09F0000E016E010E5FECE1
:1029800009F06BD03A503824286E3B503920296E1C
:102990002950000AD8A461D02850000AD8B440D7E2
:1029A000010AD8B463D7030AD8B4A6D7010AD8B4A9
:1029B000C7D7070AD8B4CAD750D03BBE4ED03B5079
:1029C00003E13A04D8A049D0000E016E010E5FEC7D
:1029D00009F03806D8A0390639AE3FD03A06D8A05B
:1029E0003B06000E396E000E2DD0000E026E050E55
:1029F000016E23EC0AF0000E41EC0AF0050AD8A49F
:102A000005D0000E356E010E346E27D03BBE06D0C9
:102A10003B5023E1030E3A5CD8B01FD0000E016E8C
:102A2000010E5FEC09F0384A392A39BE16D0395008
:102A300004E1020E385CD8A010D03A4A3B2A000EBE
:102A4000396E010E386E09D0010E41EC0AF0040A0D
:102A5000D8B4D9D6010AD8B4C8D734503510D8A4C0
:102A60001200A1D6000E016E010E5FEC09F02B0ED4
:102A7000036E2F0E046E810E056E66EC0BF0000ED9
:102A80009DEC09F01F6E1F5080090F6E000E2EEC9A
:102A900009F0000E236E000E226E000E256E000E51
:102AA000246E000E276E000E266E000E216E000EA4
:102AB000206E000E146E000E136E20EE86F010EEE7
:102AC00015F0080EDBCFE3FFE806FCE2000EF3D0C2
:102AD000000E046E0A0E036E22C001F023C002F045
:102AE0000AEC0CF001C009F002C00AF0000E0C6EF6
:102AF0000A0E0B6E96EC0BF00950156E22C009F011
:102B000023C00AF0000E0C6E0A0E0B6E96EC0BF052
:102B10000950166E000E046E0A0E036E24C001F0FA
:102B200025C002F00AEC0CF001C009F002C00AF066
:102B3000000E0C6E0A0E0B6E96EC0BF00950186E20
:102B400024C009F025C00AF0000E0C6E0A0E0B6EB0
:102B500096EC0BF00950196E000E046E0A0E036E0F
:102B600026C001F027C002F00AEC0CF001C009F009
:102B700002C00AF0000E0C6E0A0E0B6E96EC0BF003
:102B800009501B6E26C009F027C00AF0000E0C6E1B
:102B90000A0E0B6E96EC0BF009501C6EC00E096EFF
:102BA0001550300F15EC09F0C10E096E1650300F9C
:102BB00015EC09F0C20E096E175015EC09F0C30EA2
:102BC000096E1850300F15EC09F0C40E096E19503B
:102BD000300F15EC09F0C50E096E1A5015EC09F00E
:102BE000C60E096E1B50300F15EC09F0C70E096EAA
:102BF0001C50300F15EC09F01350116E1450126E6A
:102C0000134A142A210E115C4E0E1258D8A022D05D
:102C10009AD0C00E096E200E15EC09F0C10E096E97
:102C2000200E15EC09F08FD0C30E096E200E15ECA6
:102C300009F0C40E096E200E15EC09F084D0C60E02
:102C4000096E200E15EC09F0C70E096E200E15EC6A
:102C500009F079D020C011F021C012F01250000A02
:102C6000D8A471D01150000AD8B4D3D7010AD8B46F
:102C7000DBD7030AD8B4E3D766D0010E2024096E4F
:102C8000000E21200A6E000E0C6E030E0B6E96ECE9
:102C90000BF009C020F00AC021F05ED0000E026ED9
:102CA000050E016E23EC0AF0000E41EC0AF0040A56
:102CB000D8A436D0010E1E6E4FD0010E2224096E0C
:102CC000000E23200A6E000E0C6E180E0B6E96EC92
:102CD0000BF009C022F00AC023F03ED0010E2424DC
:102CE000096E000E25200A6E000E0C6E3C0E0B6E57
:102CF00096EC0BF009C024F00AC025F02DD0010E8F
:102D00002624096E000E27200A6E000E0C6E3C0E63
:102D10000B6E96EC0BF009C026F00AC027F01CD011
:102D200020C011F021C012F01250000AD8A414D013
:102D30001150000AD8B4C1D7010AD8B4CFD7030ABA
:102D4000D8B4DDD709D0010E41EC0AF0040AD8B49A
:102D5000A5D7010AD8B491D71E50D8B4B9D6020E5F
:102D60009DEC09F0456E010E9DEC09F0466E000EDB
:102D70009DEC09F0476E22C001F023C002F0000E66
:102D8000046E0A0E036E0AEC0CF0013AF00E011606
:102D90004550CF0B01100F6E020E2EEC09F022C031
:102DA00009F023C00AF0000E0C6E0A0E0B6E96ECB2
:102DB0000BF04550F00B09100F6E020E2EEC09F0CF
:102DC00024C001F025C002F0000E046E0A0E036E4E
:102DD0000AEC0CF0013AF00E011646500F0B0110F0
:102DE0000F6E010E2EEC09F024C009F025C00AF088
:102DF000000E0C6E0A0E0B6E96EC0BF04650F00BAC
:102E000009100F6E010E2EEC09F026C001F027C04C
:102E100002F0000E046E0A0E036E0AEC0CF0013A8A
:102E2000F00E011647500F0B01100F6E000E2EEC26
:102E300009F026C009F027C00AF0000E0C6E0A0E39
:102E40000B6E96EC0BF04750F00B09100F6E000E56
:102E50002EEC09F0000E9DEC09F01F6E1F507F0B49
:102E60000F6E000E2EEC09F0000E016E010E5FECED
:102E700009F0760E036E2F0E046E810E056E66EC61
:102E80000BF0000E026E050E016E23EC0AF0000E30
:102E9000016E010E5FEC09F01200005041535357D0
:102EA0004F5244204E4F54204D41544348494E47C1
:102EB00000454E544552204E4557205041535357DC
:102EC0004F52440052452D454E54455220504153D7
:102ED00053574F5244520054494D45202020202042
:102EE0004556202052504D004E4F204C4F47532006
:102EF000544F205052494E540020202020202020A2
:102F000020202020202020202000594F55204152F1
:102F10004520424C4F434B454420005041535357AA
:102F20004F52442053544F52454400456E746572CD
:102F3000204E65772054696D65004348414E4745F2
:102F400050415353574F524400415454454D5054EF
:102F500053204C4546543A00454E5445522050416A
:102F60005353574F524400524554525920454E54E2
:102F70004552494E470054494D452055504441540F
:102F8000454421004C4F475320434C454152454452
:102F90002100444F574E4C4F4144204C4F47530063
:102FA0005355434345535346554C4C592100444FC8
:102FB000574E4C4F4144494E4700434C45415220E7
:102FC0004C4F4753004C4F47532E2E2E2E2E00565B
:102FD000494557204C4F4753005345542054494DC1
:102FE00045004641494C45442100574149542E2E45
:102FF000004C4F47533A002043004F4E002A000038
:0130000001CE
:00000001FF
